:1027B80002140015C103020E0DAC020A19640210BE
:0A27C80000000212000002080000E9
:101DEB00C200752500752601E4F527F528758911C4
:101DFB00758CDCF58AD2AFD2A9D28C751003751114
:101E0B00E8122A75121F31122872D2B2D2B7122AD7
:101E1B00EB122B3AE4F527F528AE28EEC454F02448
:101E2B0010FFEE2404F5307B067D021218400528C6
:101E3B00E52870020527C39405E527940040DA7561
:101E4B002700752805AB287D027F58122354122AD0
:101E5B00F9E528152870021527D3E5289400E52706
:101E6B00940050E1850E10850F11121B4AC3E51526
:101E7B009414E51464809480500D122B6530036725
:101E8B00122B06C2038060309016309113D203855B
:101E9B000E10850F11E51345126035122B89804703
:101EAB00309016209113850A10850B11E5134512FE
:101EBB006005122B77803080172090193091168592
:101ECB000A10850B11E51345126005122B6E801756
:101EDB00122B65801220900F20910C122B65121C77
:101EEB009D12268D121B4A0526E52670020525C379
:101EFB009410E52594275003021E78E4F525F5266A
:101F0B001229C0D2B2D2B70528E52870020527C323
:101F1B009432E52794005003021E78E4F527F52848
:061F2B0012224F021E7895
:092B6500C285C284C282C283222F
:092B6E00D284C285D282C2832206
:092B7700D285C284D283C28222FD
:092B8000C285D284D283C28222F4
:092B8900D285C284D282C28322EB
:1029C000C2B7D2B7122A8AC2B730B2FDE4F58BF58E
:0A29D0008DC28FD28ED2A8C28822D9
:03000300022133A4
:10213300C0E0C0F0C083C082C0D075D000C000C072
:0D21430001C002C003C004C005C006C007F3
:10215000752400752300752200752100C2A8C28E67
:10216000AF8DEFFEAD8B7C00E42DFDEC3EFCE41268
:1021700015797B487AE1798A783F1213CE8F248EC5
:10218000238D228C217F967E437D0B7C3DAB24AA40
:1021900023A922A8211213CEE4FBFAF978401214E5
:0821A000D71215B28E148F1541
:1021A800D007D006D005D004D003D002D001D0008B
:0B21B800D0D0D082D083D0F0D0E03235
:03000B00021FECE5
:101FEC00C0E0C0F0C083C082C0D075D000C000C0BB
:0D1FFC0001C002C003C004C005C006C0073C
:10200900C2A9C28CE50945087054F512751301AED1
:1020190010AF11AB07AA06C39BFFE49AFE740194A3
:1020290000FDE49400FCE4FB7A01F9F81226498FDB
:102039008CAE10AF11AB07AA06E4C39BFFE49AFE6E
:1020490074019400FDE49400FCE4FB7A01F9F812B0
:102059002649AF038F8A7508007509018015751225
:1020690000751300E51024DCF58C85118A750800CC
:07207900750900D2A9D28C09
:10208000D007D006D005D004D003D002D001D000B4
:0B209000D0D0D082D083D0F0D0E0325E
:10243400E4900000F0A3F0C286D286122B92E490BE
:102444000002F0A3F0900000E0FEA3E0FFC39000C0
:1024540003E09F900002E09E5013122BA49000030F
:10246400E004F070E0900002E004F080D8C286122C
:102474002B46900001E004F07006900000E004F0A8
:10248400C3900001E0945A900000E0940040A82218
:10249400900000E4F0A3745AF0C286D286122B9204
:1024A400900000E0FFA3E0A3CFF0A3EFF0D39000EF
:1024B40003E09400900002E094004013122BA490D7
:1024C4000003E024FFF0900002E034FFF080DEC25D
:1024D40086122B46900001E024FFF0900000E034C7
:1024E400FFF0D3A3E09400900000E0940050AA22EF
:1028ED009000047405F0A37434F0A374C3F0900049
:1028FD0006E014F070F8900005E014F070F0900010
:06290D0004E014F070E884
:0129130022A1
:10289C00000090000774D3F0A3741EF0A3740BF027
:1028AC00900009E014F070F8900008E014F070F05B
:0828BC00900007E014F070E841
:0128C40022F1
:0C2AF9007F2B7E067DCBDDFEDEFCDFFACD
:012B050022AD
:0A2B460000007F6C7E90DEFEDFFCD5
:012B50002262
:092B5100007F0B7EBEDEFEDFFCFE
:012B5A002258
:102A8A0000000090000A741EF090000AE014F07032
:012A9A00F843
:012A9B002218
:082B92007F067E5DDEFEDFFC24
:012B9A002218
:072BA4000000007F18DFFEB6
:012BAB002207
:101B4A0012287212224FE4F529E529C454F0FF85C0
:101B5A002930E4FBFD1218400529E529C394054004
:101B6A00E8E4F529E529C454F0FFE5292405F53010
:101B7A00E4FB7D021218400529E529C3940540E4D7
:101B8A00AE0EAF0F7C037DE8121694AB07E4FD7F1F
:101B9A0050122354AE0EAF0F7C037DE81216947ECA
:101BAA00007F64CFCDCFCECCCE121694AB07E4FD26
:101BBA007F58122354AE0EAF0F7C007D6412169428
:101BCA007E007F0ACFCDCFCECCCE121694AB07E4DF
:101BDA00FD7F60122354AE0EAF0F7C007D0A1216F1
:101BEA0094AB05E4FD7F68122354AE0AAF0B7C0365
:101BFA007DE8121694AB077D027F50122354AE0A79
:101C0A00AF0B7C037DE81216947E007F64CFCDCFA4
:101C1A00CECCCE121694AB077D027F58122354AE57
:101C2A000AAF0B7C007D641216947E007F0ACFCD2A
:101C3A00CFCECCCE121694AB077D027F601223540E
:101C4A00AE0AAF0B7C007D0A121694AB057D027FAB
:101C5A0068122354E4F529E529C454F0FFE5292440
:101C6A000AF530E4FB7D041218400529E529C394DE
:101C7A000540E4E4F529E529C454F0FFE529240FD9
:101C8A00F530E4FB7D061218400529E529C39405C1
:021C9A0040E424
:011C9C002225
:10209B00122872E4F52CE52CC454F0FF852C307B10
:1020AB0001E4FD121840052CE52CC3940440E7E530
:1020BB002CC454F0FF7B10E4FD1223547530047BC9
:1020CB0001E4FD7F481218407530057B01E4FD7F6C
:1020DB00581218407B117D02E4FF122354E4F52CB7
:1020EB00E52C0475F008A4FF7B127D021223540526
:1020FB002CE52CC3940440E87530067B017D06E487
:10210B00FF1218407530077B017D067F10121840B7
:10211B007530097B017D067F6F1218407530087B87
:08212B00017D067F5F021840F0
:1024F400122872E4F52CE52CC454F02410FF852C2A
:10250400307B02E4FD121840052CE52CC3940640F0
:10251400E5E4F52CE52CC454F02410FFE52C240646
:10252400F5307B027D04121840052CE52CC394047D
:1025340040E2752C03E52C14FB7D047F58122354D0
:0F254400122AF9152CE52CD3940050E902243407
:1025B200122872E4F52CE52CC454F02410FF852C6B
:1025C200307B03E4FD121840052CE52CC394064031
:1025D200E57530067B037D06E4FF1218407530076F
:1025E2007B037D067F101218407530097B037D0640
:1025F2007F6F1218407530087B037D067F5F0218DB
:012602004097
:10260300122B20122872E4F52CE52CC454F0241864
:10261300FF852C307B04E4FD121840052CE52CC308
:10262300940540E5E4F52CE52CC454F02410FFE5B3
:102633002C2405F5307B047D04121840052CE52C71
:05264300C3940640E213
:01264800226F
:1026CC00122872E4F52CE52CC454F02410FF852C50
:1026DC00307B057D02121840052CE52CC394044078
:1026EC00E5752C03E52C14FB7D027F581223541244
:0E26FC002AF9152CE52CD3940050E902249401
:10268D00122B2D122872E4F529E529C454F02410DB
:10269D00FF8529307B067D021218400529E529C3E7
:1026AD00940440E5752904E52914FB7D027F581239
:0E26BD002354122AF91529E529D3940050E977
:0126CB0022EC
:101C9D00C201C202752A01122B1312209B300103BF
:101CAD00021DCF122961122553EF64527003021DDC
:101CBD00EA200238122984EF6032E560B4C004D204
:101CCD000180291225B2122961122553EF60F712F6
:101CDD0029611225538F2B122961122553EF70F7AD
:101CED00E52B644C6003021DEA12209B1229611240
:101CFD002553EF6055122961122553EF6452604A46
:101D0D00122961122553EF644C603FD202122961F2
:101D1D00122553BF5A09745B252AF8E4F6800D127B
:101D2D002961122553745B252AF8A6071229611221
:101D3D002553EF70F7E52A75F008A4FF745B252A8B
:101D4D00F8E6FB7D02122354052A12296112255350
:101D5D00EF644C701D122961122553EF70F7D52ACF
:101D6D0003752A01E52A75F008A4FF7B127D021286
:101D7D002354E52A64056003021CAAE55CB55814DA
:101D8D00E55DB5590FE55EB55A0AE55FB55B05D260
:101D9D0001021CAA752A011225B2122961122553BE
:101DAD00EF60F71229611225538F2B12296112252D
:101DBD0053EF70F7E52B644C702312209BC2020287
:101DCD001CAA1224F4122603122961122553EF6066
:0D1DDD00F7122961122553EF70F71226CC82
:011DEA0022D6
:10000E0000E010080810E000000F102020100F0074
:10001E00001010F8000000000020203F20200000FB
:10002E000070080808887000003028242221300053
:10003E0000300888884830000018202020110E005B
:10004E000000C02010F8000000070424243F240004
:10005E0000F80888880808000019212020110E00D9
:10006E0000E0108888180000000F112020110E00EB
:10007E0000380808C83808000000003F00000000E3
:10008E000070880808887000001C222121221C00A4
:10009E0000E010080810E0000000312222110F00CD
:1000AE00000080808000000000192424123F2000F0
:1000BE0010F0008080000000003F112020110E0083
:1000CE000000008080800000000E11202020110012
:1000DE00000080808090F000001F202020103F2024
:1000EE000000808080800000001F2424242417003C
:1000FE00008080E0909020000020203F2020000013
:10010E0000000000C0380400006018070000000066
:10011E00000000C0C00000000000003030000000F1
:10012E0000000000000000000001010101010100BB
:10013E000000000000000000003030000000000051
:10014E00001088C4330040424242C2424242400044
:10015E000000000000000000000000000000000091
:10016E00020100FF0000000040807F000000000040
:10017E000000000000000000000000000000000071
:10018E0002FA8282FE8000F80808FF0808F80000D4
:10019E000000000000000000000000000000000051
:1001AE0008184884443F804125191F214181800051
:1001BE000000000000000000000000000000000031
:1001CE00404042CC0004F49494FF9494F404000054
:1001DE000000000000000000000000000000000011
:1001EE000040201F20484442415F414244484000A5
:1001FE0000000000000000000000000000000000F1
:10020E000000FC242424FC252624FC2424240400A1
:10021E0000000000000000000000000000000000D0
:10022E0040308F80844C55252525554C808080008C
:10023E0000000000000000000000000000000000B0
:10024E0000000000000000000000000000000000A0
:10025E000000000000000000000000000000000090
:10026E000000363600000000000000000000000014
:10027E000000000000000000000000000000000070
:10028E00C8B88FE88888404848E85F48484840002A
:10029E000000000000000000000000000000000050
:1002AE00081808FF040400020B1222D20A060000EE
:1002BE000000000000000000000000000000000030
:1002CE002010E824272424E424342C20E00000000D
:1002DE000000000000000000000000000000000010
:1002EE0080601F090909097F090949897F000000FB
:1002FE0000000000000000000000000000000000F0
:10030E00404042CC0004F49494FF9494F404000012
:10031E0000000000000000000000000000000000CF
:10032E000040201F20484442415F41424448400063
:10033E0000000000000000000000000000000000AF
:10034E000000FC242424FC252624FC242424040060
:10035E00000000000000000000000000000000008F
:10036E0040308F80844C55252525554C808080004B
:10037E00000000000000000000000000000000006F
:10038E00000000000000000000000000000000005F
:10039E00000000000000000000000000000000004F
:1003AE0000003636000000000000000000000000D3
:1003BE00000000000000000000000000000000002F
:1003CE0020908C87EC948414C847444C54C4040089
:1003DE00000000000000000000000000000000000F
:1003EE0040201806FF041800FF92929292FF000020
:1003FE0000000000000000000000000000000000EF
:10040E0000F808080808887F8808080808F800001F
:10041E0000000000000000000000000000000000CE
:10042E0000FF0008040201000001024C807F000062
:10043E0000000000000000000000000000000000AE
:10044E001060028C0000FE9292929292FE000000CA
:10045E00000000000000000000000000000000008E
:10046E0004047E01407E42427E427E42427E400035
:10047E00000000000000000000000000000000006E
:10048E000000FC242424FC252624FC24242404001F
:10049E00000000000000000000000000000000004E
:1004AE0040308F80844C55252525554C808080000A
:1004BE00000000000000000000000000000000002E
:1004CE00000000000000000000000000000000001E
:1004DE00000000000000000000000000000000000E
:1004EE000000363600000000000000000000000092
:1004FE0000000000000000000000000000000000EE
:10050E00001088C4330040424242C2424242400080
:10051E0000000000000000000000000000000000CD
:10052E00020100FF0000000040807F00000000007C
:10053E0000000000000000000000000000000000AD
:10054E0002FA8282FE8000F80808FF0808F8000010
:10055E00000000000000000000000000000000008D
:10056E0008184884443F804125191F21418180008D
:10057E00000000000000000000000000000000006D
:10058E00003E22E2223E00FE2222222222E202002F
:10059E00000000000000000000000000000000004D
:1005AE00203F201F1111007F444444444447400023
:1005BE00000000000000000000000000000000002D
:1005CE00040404F484D4A5A6A4D484F4040404007E
:1005DE00000000000000000000000000000000000D
:1005EE0000FE0202123A1613121A3242827E0000E6
:1005FE0000000000000000000000000000000000ED
:10060E0000000000000000000000000000000000DC
:10061E0000000000000000000000000000000000CC
:10062E000000363600000000000000000000000050
:10063E0000000000000000000000000000000000AC
:10064E0088681FC80810C85452D1129408D01000E0
:10065E00000000000000000000000000000000008C
:10066E00091909FF0500FF1292FF005F807F00004D
:10067E00000000000000000000000000000000006C
:10068E00000000000001E21CE0000000000000007D
:10069E00000000000000000000000000000000004C
:1006AE00804020100C03000000030C3040808000BE
:1006BE00000000000000000000000000000000002C
:1006CE00108C4404E40495A64424148444940C0031
:1006DE00000000000000000000000000000000000C
:1006EE0002027A414143427E42424243F8000000F8
:1006FE0000000000000000000000000000000000EC
:10070E000484E45C44C40002F2828282FE80800093
:10071E0000000000000000000000000000000000CB
:10072E0002017F10103F00080808084888403F006B
:10073E0000000000000000000000000000000000AB
:10074E000000FE121212F212121E00F00000FF0044
:10075E00000000000000000000000000000000008B
:10076E00100E013F0101FF11211F000F40807F007D
:10077E00000000000000000000000000000000006B
:10078E00404040404040FF444444444444404000C4
:10079E00000000000000000000000000000000004B
:1007AE00000000000000FF0000020408100000001E
:1007BE00000000000000000000000000000000002B
:1007CE00404042CC0000FF4949C949497F800000A2
:1007DE00000000000000000000000000000000000B
:1007EE000040201F20405F48444041424558400091
:1007FE0000000000000000000000000000000000EB
:10080E00008060F80710901011161010D010000024
:10081E0000000000000000000000000000000000CA
:10082E00010000FF4040415E4040704E414040009C
:10083E0000000000000000000000000000000000AA
:10084E000202FE929292FE0206FC040404FC0000D8
:10085E00000000000000000000000000000000008A
:10086E0008180F080804FF0484402718274080004A
:10087E00000000000000000000000000000000006A
:10088E001060020CC000E22C203F2028E600000081
:10089E00000000000000000000000000000000004A
:1008AE0004047C030000FF09090949897F00000048
:1008BE00000000000000000000000000000000002A
:1008CE00000000FC54565554545454FC0080400013
:1008DE00000000000000000000000000000000000A
:1008EE0040424223222212120A46827F0100000059
:1008FE0000000000000000000000000000000000EA
:10090E00008060F8078040B08E80808798608000FD
:10091E0000000000000000000000000000000000C9
:10092E00010000FF008040300F0040807F0000007B
:10093E0000000000000000000000000000000000A9
:10094E0002FA8282FE804020504C434C50204000E0
:10095E000000000000000000000000000000000089
:10096E0008184884443F404458414E605847400060
:10097E000000000000000000000000000000000069
:10098E00404042CC000004C40404FC0404040400EF
:10099E000000000000000000000000000000000049
:1009AE000000003F1048407F40407F4141414000E1
:1009BE000000000000000000000000000000000029
:1009CE004042CC0000E2222A2AF22A2622E000002F
:1009DE000000000000000000000000000000000009
:1009EE0080403F4080FF898989BF89A9C9BF8000A7
:1009FE0000000000000000000000000000000000E9
:100A0E00404042CC00084888080808FF0808080043
:100A1E0000000000000000000000000000000000C8
:100A2E000040201F204040414048504F4040400071
:100A3E0000000000000000000000000000000000A8
:100A4E00000202C2020202FE828282828202000042
:100A5E000000000000000000000000000000000088
:100A6E004040407F4040407F40404040404040003A
:100A7E000000000000000000000000000000000068
:100A8E00080888C8380C0B0808E808080808080089
:100A9E000000000000000000000000000000000048
:100AAE00020100FF40414141417F4141414140002F
:100ABE000000000000000000000000000000000028
:100ACE0080828282FE8282828282FE828282800086
:100ADE000000000000000000000000000000000008
:100AEE00008040300F0000000000FF0000000000FA
:100AFE0000000000000000000000000000000000E8
:100B0E0020908C87EC948414C847444C54C4040041
:100B1E0000000000000000000000000000000000C7
:100B2E0040201806FF041800FF92929292FF0000D8
:100B3E0000000000000000000000000000000000A7
:100B4E00000000FC54565554545454FC0080400090
:100B5E000000000000000000000000000000000087
:100B6E0040424223222212120A46827F01000000D6
:100B7E000000000000000000000000000000000067
:100B8E00008060F8078040B08E808087986080007B
:100B9E000000000000000000000000000000000047
:100BAE00010000FF008040300F0040807F000000F9
:100BBE000000000000000000000000000000000027
:100BCE0002FA8282FE804020504C434C502040005E
:100BDE000000000000000000000000000000000007
:100BEE0008184884443F404458414E6058474000DE
:100BFE0000000000000000000000000000000000E7
:100C0E00404042CC000004C40404FC04040404006C
:100C1E0000000000000000000000000000000000C6
:100C2E000000003F1048407F40407F41414140005E
:100C3E0000000000000000000000000000000000A6
:100C4E000040301E101010FF101010101000000089
:100C5E000000000000000000000000000000000086
:100C6E0081814121110D0301030D1121418181006B
:100C7E000000000000000000000000000000000066
:100C8E0000FE02FA02FE4020D8171010F0101000DD
:100C9E000000000000000000000000000000000046
:100CAE008047300F106780402116081621408000C3
:100CBE000000000000000000000000000000000026
:100CCE00101014D4545454FC525252D3121010001B
:100CDE000000000000000000000000000000000006
:100CEE00404050575555557F55555557504040002B
:100CFE0000000000000000000000000000000000E6
:100D0E00404042CC009090909090FF101116100031
:100D1E0000000000000000000000000000000000C5
:100D2E000000003F1028603F1010010E3040F00010
:100D3E0000000000000000000000000000000000A5
:100D4E000202FE929292FE0206FC040404FC0000D3
:100D5E000000000000000000000000000000000085
:100D6E0008180F080804FF04844027182740800045
:100D7E000000000000000000000000000000000065
:100D8E001060020CC000E22C203F2028E60000007C
:100D9E000000000000000000000000000000000045
:100DAE0004047C030000FF09090949897F00000043
:100DBE000000000000000000000000000000000025
:100DCE0020908C87EC948414C847444C54C404007F
:100DDE000000000000000000000000000000000005
:100DEE0040201806FF041800FF92929292FF000016
:100DFE0000000000000000000000000000000000E5
:100E0E0080828282828282E2A2928A8682808000A0
:100E1E0000000000000000000000000000000000C4
:100E2E00000000000040807F000000000000000075
:100E3E0000000000000000000000000000000000A4
:100E4E000000E28282828282828282FE00000000A4
:100E5E000000000000000000000000000000000084
:100E6E0000003F404040404040404040407800003D
:100E7E000000000000000000000000000000000064
:100E8E00101010FF109004040404FC040404040069
:100E9E000000000000000000000000000000000044
:100EAE000444827F0100000040807F0000000000AB
:100EBE000000000000000000000000000000000024
:100ECE0080828282FE8282828282FE828282800082
:100EDE000000000000000000000000000000000004
:100EEE00008040300F0000000000FF0000000000F6
:100EFE0000000000000000000000000000000000E4
:100F0E00101010FF9020988888E98E8888A8980085
:100F1E0000000000000000000000000000000000C3
:100F2E000242817F000080844B28102847800000F9
:100F3E0000000000000000000000000000000000A3
:100F4E00008060F88780848484FE828382808000A3
:100F5E000000000000000000000000000000000083
:100F6E00010000FF00404040407F404040400000F4
:100F7E000000000000000000000000000000000063
:100F8E00101012D2565A5253525A56D212101000F4
:100F9E000000000000000000000000000000000043
:100FAE004030007785858DB5858585E7001060001A
:100FBE000000000000000000000000000000000023
:100FCE004030EF242480E49C105454FF547C1000D5
:100FDE000000000000000000000000000000000003
:100FEE0001017F21512618274445455F45454400A0
:100FFE0000000000000000000000000000000000E3
:10100E0000001011161010F0101014131000000034
:10101E0000000000000000000000000000000000C2
:10102E008181414121110D030D1121414181810029
:10103E0000000000000000000000000000000000A2
:10104E0020908C87EC948414C847444C54C40400FC
:10105E000000000000000000000000000000000082
:10106E0040201806FF041800FF92929292FF000093
:10107E000000000000000000000000000000000062
:10108E00000202C2020202FE8282828282020000FC
:10109E000000000000000000000000000000000042
:1010AE004040407F4040407F4040404040404000F4
:1010BE000000000000000000000000000000000022
:1010CE00080888C8380C0B0808E808080808080043
:1010DE000000000000000000000000000000000002
:1010EE00020100FF40414141417F414141414000E9
:1010FE0000000000000000000000000000000000E2
:10110E0000001011161010F0101014131000000033
:10111E0000000000000000000000000000000000C1
:10112E008181414121110D030D1121414181810028
:10113E0000000000000000000000000000000000A1
:10114E0020908C87EC948414C847444C54C40400FB
:10115E000000000000000000000000000000000081
:10116E0040201806FF041800FF92929292FF000092
:10117E000000000000000000000000000000000061
:10118E0000FE92929292FE0000FE020202FE00000B
:10119E000000000000000000000000000000000041
:1011AE00003F20100A04180000FF0004080700008A
:1011BE000000000000000000000000000000000021
:1011CE0000083000FF008884532212CA0600000077
:1011DE000000000000000000000000000000000001
:1011EE0004040201FF00020A1242827F0202020080
:1011FE0000000000000000000000000000000000E1
:10120E00040404F484D4A5A6A4D484F40404040031
:10121E0000000000000000000000000000000000C0
:10122E0000FE0202123A1613121A3242827E000099
:10123E0000000000000000000000000000000000A0
:10124E0080828282FE8282828282FE8282828000FE
:10125E000000000000000000000000000000000080
:10126E00008040300F0000000000FF000000000072
:10127E000000000000000000000000000000000060
:10128E0000020CE04020F84F4849FE48484808004C
:10129E000000000000000000000000000000000040
:1012AE0004047F000000FF2222223F22222220007F
:1012BE000000000000000000000000000000000020
:1012CE00809090484C57242424544C4480808000B5
:1012DE000000000000000000000000000000000000
:1012EE00000000FF4949497F494949FF00000000BD
:1012FE0000000000000000000000000000000000E0
:10130E00000000FC4444444546444444447C0000F0
:10131E0000000000000000000000000000000000BF
:10132E004020180700FC44444444444444FC00005C
:10133E00000000000000000000000000000000009F
:10134E004044C4444444401010FF101010F00000FC
:10135E00000000000000000000000000000000007F
:10136E00103C131014B840300E014080403F000076
:10137E00000000000000000000000000000000005F
:10138E00000000000000000000000000000000004F
:10139E00000000000000000000000000000000003F
:1013AE0000003636000000000000000000000000C3
:1013BE00000000000000000000000000000000001F
:092B9B00D280D281C281C28022E5
:072BBC00D280C281D2812208
:0B2ABF00122942122ACAAF0412294259
:052ACA00D280C2802251
:07293B00AC07122B9B7F7813
:10294200C280E4FEAD07530580BD8004D2818002BF
:0E295200C281EF25E0FFD280C2800EBE08E6F3
:012960002254
:0E2ACF0012293B122ACAE4FF122ABF022BBCB6
:0E2ADD0012293B122ACA7F40122ABF022BBCCC
:1029A500F583E5822AF582E43583F583E493FF7D9B
:0129B5000120
:0A29B600ED6003022ADD122ACF2291
:05291400E904FDAF2DF8
:10291900AB07ED24B0FFE4FD1229B6EB54F0C45423
:102929000F4410FFE4FD1229B6EB540FFFE4FD023A
:0229390029B6BD
:102A3600E4FD7F8D1229B6E4FD7F141229B6E4FD6C
:052A46007FAF0229B67C
:10287200E4FBEB24B0FFE4FD1229B6E4FDFF1229CC
:10288200B6E4FD7F101229B6E4FA7D01E4FF1229B5
:09289200B60ABA80F50BBB08D9A7
:01289B00221A
:062354008B2DAA07A9056C
:10235A00EAD3947F4004E4FA0909AF02AD011229D5
:10236A0019AF02AD01122919E4FBEBFF3395E0FE28
:10237A0075F010E52DA42FF582E5F03EF583E58290
:10238A00240EF582E58334001229AF0BBB08DBAFBC
:10239A0002E904FD122919E4FBEBFF3395E0FE750F
:1023AA00F010E52DA42FF582E5F03EF583E58224B1
:0E23BA0016F582E58334001229AF0BBB08DB59
:0123C80022F2
:061840008F2D8B2FA9057E
:10184600E4F531122919E52FB4070040030219CF38
:1018560090185DF82828730218720218A40218D688
:1018660002190802193A02196C02199EE4FA75F077
:1018760040E530A4244EF582E5F034011229A50A8C
:10188600BA10EB122914E4FA75F040E530A4246E80
:10189600F582E5F034011229A50ABA10EB22E4FA22
:1018A60075F040E530A4244EF582E5F034061229A1
:1018B600A50ABA10EB122914E4FA75F040E530A433
:1018C600246EF582E5F034061229A50ABA10EB2239
:1018D600E4FA75F040E530A424CEF582E5F034084C
:1018E6001229A50ABA10EB122914E4FA75F040E59C
:1018F60030A424EEF582E5F034081229A50ABA10C0
:10190600EB22E4FA75F040E530A4244EF582E5F0CA
:10191600340B1229A50ABA10EB122914E4FA75F051
:1019260040E530A4246EF582E5F0340B1229A50AB1
:10193600BA10EB22E4FA75F040E530A424CEF58225
:10194600E5F0340D1229A50ABA10EB122914E4FAAF
:1019560075F040E530A424EEF582E5F0340D122949
:10196600A50ABA10EB22E4FA75F040E530A4248EFD
:10197600F582E5F034101229A50ABA10EB122914E3
:10198600E4FA75F040E530A424AEF582E5F03410B3
:101996001229A50ABA10EB22E4FA75F040E530A444
:1019A600248EF582E5F034111229A50ABA10EB123D
:1019B6002914E4FA75F040E530A424AEF582E5F08A
:0919C60034111229A50ABA10EB34
:0119CF0022F5
:101F3100E4FD7FAE1229B6E4FDFF1229B6E4FD7F70
:101F4100101229B6E4FD7F401229B6E4FD7FB012DC
:101F510029B6E4FD7F811229B6E4FD7FFF1229B67F
:101F6100E4FD7FA11229B6E4FD7FA61229B6E4FDA6
:101F71007FA81229B6E4FD7F3F1229B6E4FD7FC890
:101F81001229B6E4FD7FD31229B6E4FDFF1229B66A
:101F9100E4FD7FD51229B6E4FD7F801229B6E4FD68
:101FA1007FD81229B6E4FD7F051229B6E4FD7FD959
:101FB1001229B6E4FD7FF11229B6E4FD7FDA122978
:101FC100B6E4FD7F121229B6E4FD7FDB1229B6E4E7
:101FD100FD7F301229B6E4FD7F8D1229B6E4FD7F25
:0B1FE100141229B6E4FD7FAF0229B600
:1027D20002560000046000000000045C00000000DB
:0627E20004580505050581
:102A4B00E4FDFCC3ED9FEC9E500A0000000DBD00A1
:042A5B00010C80EFFB
:012A5F002254
:102A0A00E4FFFEEF25E0FFC295309703430701D2AA
:052A1A00950EBE08EE60
:012A1F002294
:1029DA00E4FEEF30E704D2968002C296C295D29501
:0829EA00EF25E0FF0EBE08EA34
:0129F20022C2
:102A6000E4FEC294EF25E0547E4480FF1229DA127E
:042A70002A0AD294C8
:012A7400223F
:1027E9001228057D1E7F2D122805E4FD7F2C122855
:0C27F900057D8D7F2A1228057D3E7F2B78
:10280500C294EF25E0547EFF1229DAAF051229DACA
:02281500D2945B
:01281700229E
:042A20007D087F08A6
:022A2400AC07FD
:102A2600E4FE122A60AE07AF04EDF45EFD0228054F
:022AAE00AC0773
:0F2AB000E4FE122A60AE07AF04ED4EFD022805CA
:0819D0008F458B468A478948C8
:1019D8007550FEE4F551F552E54524F4600C24FEFB
:1019E800700E755112755210800675517775523008
:1019F800E5514480FD7F021228057D807F04122A6C
:101A080024E4FD7F011228057D807F0A122AAEE4B6
:101A1800F554F555C3E5559549E5549400501FAB69
:101A280046AA47A948855582855483121633FD7FF7
:101A3800091228050555E55570DA055480D6AD45D7
:101A48007F01122805E545B40C077D807F0D122A19
:101A5800AE7554077555D07F04122A608F53E5552B
:101A6800155570021554E55545546009E55320E0B5
:101A780004555260E27D807F0D122A24E5554554B5
:101A88007003021B397F06122A60EF541B600302A1
:101A98001B36F550E553555130E0037550FFE545C9
:101AA800640C6003021B397F0A122A608F537F0C73
:101AB800122A60EF5407FD6021E55324FFFFE43448
:101AC800FFFEEF7803C333CE33CED8F97C002DFF69
:101AD800EC3EAB4DAA4EA94F800FE55375F008A414
:101AE800FFAB4DAA4EA94FE5F08FF012171FE55333
:101AF8007003755301E553D394124003755312E4F0
:101B0800F554F555C3E5559553E554940050227F97
:101B180009122A60AB4AAA4BA94C85558285548381
:101B2800EF1216720555E55570DA055480D67550D2
:101B3800FE7D807F0C122AAEE4FD7F01122805AFDE
:011B4800504C
:011B49002279
:0823C9007B007A0079567F26A3
:0823D1008F2C8B2D8A2E892F21
:1023D900122A207D077F0D1228057D037F14122AFA
:1023E900AE852C32754901754A00754B00754C3222
:1023F900754D00754E00754F307B007A0079327F3C
:102409000C1219D0EF7021E531641045307019AB09
:102419002DAA2EA92FE532121660AB2DAA2EA92FAF
:0A242900900001E5330216727FFEF9
:012433002286
:0622D9008B2C8A2D892EDA
:1022DF00E4F530122A20E4FD7F0D1228057D807F62
:1022EF000E122A24753393753420754902754A00EE
:1022FF00754B00754C33754D00754E00754F317B26
:10230F00007A0079337F0C1219D08F2FE52F702BA5
:10231F00FF74332FF8E6AB2CAA2DA92E8F8275836D
:10232F000012167274332FF8E662300FBF04E27496
:10233F00332FF8E665306003752FFE7D807F0E1218
:04234F002AAEAF2FD4
:012353002267
:10278600D2B37F0A7E00122A4BC2B3122A4BD2B3AF
:10279600122A4B7D0F7F011228057F0A7E00122A1E
:1027A6004B7D3D7F111227E97D407F151228057F5D
:0227B6000022FF
:10281800EF64417024122A207D3D7F111228057D26
:10282800867F171228057D7F7F261227E97FE87E9D
:0F28380003122A4B122A9C80037FFF227F00226B
:102A9C007F14122A60EF540370077D037F14122AEF
:012AAC00AE7B
:012AAD002206
:072BC3007D037F14022A24A8
:0E2AEB00122786122BC3122A9C7F4102281844
:102984001223C9EF60091223C9EF60037F00227B81
:10299400007A0079601222D9EF60037F00227F0160
:0129A4002210
:10296100E4F52C75A0F0E5A064F06014122B46E5A7
:10297100A064F0600BAFA075A00FAEA0EF4EF52CD8
:02298100AF2C79
:012983002231
:10255300EF12174C25AF7725A37B25977D258B7E1F
:1025630025ACB725A0BB2594BD258BBE25A9D725B2
:102573009DDB2591DD258BDE25A6E7259AEB258EB0
:10258300ED258BEE0000258B7F00227F09227F063D
:10259300227F03227F52227F08227F05227F02228D
:0F25A3007F4C227F07227F04227F01227F5A2252
:102A7500538EF7759A50759CDC438E04438E107502
:052A8500AF01D2AF22F9
:1028C5007FAA1228D67F071228D67F021228D6E4BF
:0128D500FF03
:1028D600E4F5AF539AFD8F9BAE9A530602EE60F86D
:0628E600539AFD75AF01DD
:0128EC0022C9
:0C2B3A001228C50F1228D67FB40228D63E
:0D2B06001228C57F021228D67FB50228D6FE
:0D2B13001228C57F031228D67FB60228D6EF
:0D2B20001228C57F041228D67FB70228D6E0
:0D2B2D001228C57F051228D67FB80228D6D1
:092B5B00007F0B7EBEDEFEDFFCF4
:012B6400224E
:10284700C2877FAA7E00EF1FAC0670011E4C70F690
:10285700D287FEFF3087110FBF00010ED3EF948898
:0A286700EE941340EF7F00227F0182
:012871002244
:08270A00122847122B5B7FCC63
:10271200E4FBFAC287052CE52C7002052BEF13921D
:1027220087752B00752C1EE52C152CAC2B70021511
:102732002B4C70F3D287EFC313FF0BBB00010AEBE4
:0527420064084A70CE9E
:01274700226F
:102748007D087C00C2870FBF0000D2870FBF000042
:102758000FBF0000A287E433C43333335480FBE94E
:10276800C3134BF97E007F14EF1FAA0670011E4A9F
:0D27780070F6ED1D70011CED4C70C9AF0135
:012785002231
:082BAC0012270A7F44022712E0
:082BB40012270A7FBE0227125E
:1029F300E4FFFE122BAC122BB41227488F2A1227A6
:062A030048EFFEE52AFF8A
:012A090022AA
:10224F001229F3AC06AD07EC121579E4FBFA79808D
:10225F00783D1213CE1215B28E188F191229F3ACC6
:10226F0006AD07EC121579E4FBFA7920783F1213CB
:10227F00CE1215B28E168F17AE18AF197C007D6473
:10228F001216E97E007F0ACFCDCFCECCCE1216E943
:10229F00AB077D047F50122354AE18AF197C007D1D
:1022AF000A1216E9AB057D047F581223547B137D68
:1022BF00047F60122354AE16AF177C007D0A1216EE
:0A22CF00E9AB057D047F680223548B
:1013CE00EC4D6011E8497017ED33EC3304600DE419
:1013DE00FCFFFEFD22E933E8330470F802161E12FC
:1013EE0015E958046009E4CC2481500628500902FE
:1013FE001628284003021625C0E0EB4A7044B98037
:10140E0006D0E0FB021614EF4E701CBD8008EBFFF9
:10141E00EAFEE9FD80EBE98DF0A4FEE5F00214B7DB
:10142E00E9CDF9EAFEEBFFEF89F0A4FCE5F0CE89F9
:10143E00F0A42EFFE435F0CD89F0A42DFEE435F0B6
:10144E008067EF4E7005BD80D780C3EF8BF0A4ACE4
:10145E00F0EE8BF0A42CFCE435F0F8EF8AF0A42C1F
:10146E00E5F038FCE433CB8DF0A42CFCE5F03BF832
:10147E00EE8AF0A42CFCE5F038F8E433CF89F0A422
:10148E002CFCE5F038CF3400CE89F0A42FFFE5F028
:10149E003EFEE433C98DF0A42EFEE5F039CD8AF080
:1014AE00A42FFFE5F03EFEE43DFD33D0E0FB5007F8
:1014BE000BBB000F021628EC2CFCEF33FFEE33FEB5
:0614CE00ED33FD021600E3
:1014D400021628EC5D046005E85904700302161E28
:1014E4001215E9580460F6EC4860F2EC7004FDFE55
:1014F400FF22C860DB2481C85009C39860025006EB
:101504000216259850CAF582E9294B4A7005AB8228
:1015140002161475F0007C1A7880C3EF9BEE9AEDE6
:1015240099400DC3EF9BFFEE9AFEED99FDE842F062
:10153400DC23ACF0D0E0FFD0E0FED0E0FDAB8220B5
:10154400E7101BEB60BAEC2CFCEF33FFEE33FEED3F
:1015540033FD021600E803F830E705C0F075F0002B
:10156400EF2FFFEE33FEED33FD40B830E7C280AA23
:1015740075F020800E75F010800575F0087D007EF2
:10158400007F003392D530D50312173EEC33401060
:10159400EF33FFEE33FEED33FDEC33FCD5F0ED22FB
:0E15A400E5F0247EA2D513CC92E7CDCEFF2237
:1015B200EDD2E7CD33EC3392D524814006E4FFFE31
:1015C200FDFC22FCE4CFCECDCC24E0501174FF8090
:1015D200EDC3CC13CCCD13CDCE13CECF13CF04702D
:0715E200F030D5DE02173ED8
:1015E900E9D2E7C933E833F892D5EDD2E7CD33EC48
:0715F90033FC5002B2D522C1
:10160000EC30E7100FBF000C0EBE00080DBD00044B
:101610000BEB6014A2D5EB13FCED92E7FD2274FFF7
:10162000FCFDFEFF22E480F8A2D574FF13FC7D8050
:03163000E480EF64
:030000000221C317
:0C21C300787FE4F6D8FD75816302220AE3
:10163300BB010CE58229F582E5833AF583E022506C
:1016430006E92582F8E622BBFE06E92582F8E222B6
:0D165300E58229F582E5833AF583E49322D0
:10166000BB010689828A83F0225002F722BBFE0169
:02167000F32263
:10167200F8BB010DE58229F582E5833AF583E8F0AE
:10168200225006E92582C8F622BBFE05E92582C85A
:02169200F22242
:10169400BC000BBE0029EF8DF084FFADF022E4CC3A
:1016A400F875F008EF2FFFEE33FEEC33FCEE9DEC03
:1016B400984005FCEE9DFE0FD5F0E9E4CEFD22ED49
:1016C400F8F5F0EE8420D21CFEADF075F008EF2F93
:1016D400FFED33FD4007985006D5F0F222C398FD84
:0516E4000FD5F0EA2221
:1016E900C2D5EC30E709B2D5E4C39DFDE49CFCEE1C
:1016F90030E715B2D5E4C39FFFE49EFE121694C3EA
:10170900E49DFDE49CFC800312169430D507C3E4E4
:061719009FFFE49EFE228A
:10171F00BB010A89828A83F0E5F0A3F0225006F715
:0F172F0009A7F01922BBFE06F3E5F009F3192212
:10264900C2D5E830E70FB2D5E4C39BFBE49AFAE4BC
:1026590099F9E498F8EC30E717B2D512267F1217EA
:10266900AEE4C39BFBE49AFAE499F9E498F8800391
:102679001217AE30D50DE4C39FFFE49EFEE49DFD25
:04268900E49CFC22AF
:0E173E00C3E49FFFE49EFEE49DFDE49CFC22BC
:10174C00D083D082F8E4937012740193700DA3A32C
:10175C0093F8740193F5828883E473740293686040
:06176C00EFA3A3A380DF40
:1021CF00021DEBE493A3F8E493A34003F68001F21E
:1021DF0008DFF48029E493A3F85407240CC8C33311
:1021EF00C4540F4420C8834004F456800146F6DFE0
:1021FF00E4800B01020408102040809027B8E47E91
:10220F00019360BCA3FF543F30E509541FFEE493D4
:10221F00A360010ECF54C025E060A840B8E493A39B
:10222F00FAE493A3F8E493A3C8C582C8CAC583CAC6
:10223F00F0A3C8C582C8CAC583CADFE9DEE780BE7E
:0127E80000F0
:1017720075F008758200EF2FFFEE33FECD33CDCC2E
:1017820033CCC58233C5829BED9AEC99E5829840B1
:101792000CF582EE9BFEED9AFDEC99FC0FD5F0D68E
:1017A200E4CEFBE4CDFAE4CCF9A88222B800C1B9B8
:1017B2000059BA002DEC8BF084CFCECDFCE5F0CBF6
:1017C200F97818EF2FFFEE33FEED33FDEC33FCEB2F
:1017D20033FB10D703994004EB99FB0FD8E5E4F9EA
:1017E200FA227818EF2FFFEE33FEED33FDEC33FCD7
:1017F200C933C910D7059BE99A4007EC9BFCE99ACB
:10180200F90FD8E0E4C9FAE4CCFB2275F010EF2F0F
:10181200FFEE33FEED33FDCC33CCC833C810D7070F
:101822009BEC9AE899400AED9BFDEC9AFCE899F84A
:0E1832000FD5F0DAE4CDFBE4CCFAE4C8F922DD
:00000001FF
